:020000040800F2
:1000000000A0002031BE000899BE000809B0000819
:1000100099BE000899BE000899BE000800000000C3
:1000200000000000000000000000000099BE000871
:1000300099BE00080000000099BE0008C9620008CF
:1000400099BE000899BE000899BE000899BE000834
:1000500099BE000899BE0008015E0008155E000800
:10006000115E00080D5E0008095E000801640008CA
:10007000F9630008F1630008E9630008E163000820
:10008000D9630008D163000899BE000899BE000832
:1000900099BE000899BE000899BE0008055E0008D8
:1000A000812B0008BD2B0008712B0008E12B0008F4
:1000B000B12B0008A12B0008912B000899BE000865
:1000C00099BE000899BE000899BE000899BE0008B4
:1000D00099BE00085D2D0008552D00084D2D000823
:1000E000FD5D000899BE000899BE000899BE000891
:1000F00099BE000899BE000899BE000899BE000884
:1001000000000000000000000000000099BE000890
:1001100099BE000899BE000899BE000899BE000863
:1001200099BE000899BE000899BE000899BE000853
:1001300099BE000899BE0008000000000000000001
:1001400099BE000899BE000899BE00080000000092
:10015000000000000000000000000000000000009F
:10016000000000000000000099BE000899BE0008D1
:1001700099BE000800000000000000000000000020
:080180000000000099BE000818
:100188002DE9F04F394DD5B06F1C4FF0000BA5F19C
:100198001104A5F11103029355F8113C002B01F04D
:1001A800CE81334EDFF8CC8055F8110C06F09DF85F
:1001B8000190002801F09A8155F8110C06F092F888
:1001C80015F8053C013B8146042B04D8DFE803F011
:1001D800070C1F292D0024284ED1012343E04D2868
:1001E8000CBF022300233EE000233C2805F8053C11
:1001F80002D03E2805D07FE015F80D3C002B7BD1BE
:1002080003E015F80D3C012B76D103232BE04028A1
:100218004FF000039EBF05F8043C05F8030C0423C7
:1002280021E005F8020C05231DE015F8042C15F84B
:10023800033C9A4208D2531C05F8043C502303FBA4
:100248000B431A44107457E015F8022C691E5A40E3
:1002580013F1FF3303D311F8010B4240F8E791453E
:100268000CBF0623002305F8053C45E045070020A0
:1002780034070020FC9F002094F8CC3013F00403CE
:100288003AD1B9F1230F20D1012155F8112C84F866
:10029800A01084F8B5301249C4F8AC101023C4F883
:1002A800B02084F8B4300F480F4BC4F8C830C4F8F5
:1002B800A420C4F8A82009F063FE05F039F894F8E2
:1002C800CC3043F0020384F8CC3096F8CE304B455E
:1002D80012D1064BC8F80030054B064ADA600BE02D
:1002E800C36300081C070108E0070020EFBEADDE6D
:1002F80000ED00E00400FA0515F8053C062B7FF434
:1003080053AF15F80D2C002A41F0F08054AB15F8C6
:10031800038C06936B1E08934344099315F8023C1B
:10032800ADF81E2019B214AE013B0596ADF82810A1
:10033800ADF82A20ADF81C10FD2B00F25686DFE838
:1003480013F00801110114011F0125015406540678
:1003580054065406540654065406540654065406C5
:1003680054065406540654065406540654065406B5
:1003780054065406540654065406540654065406A5
:1003880054065406EC024F06100498071304A407F9
:100398002C04C5073F04DB074204E1075406540652
:1003A80054065406AE04560814036B06EA0497086C
:1003B8002004B4073405E8021F065A020F06540643
:1003C800B4045C08C2046708C5082B050005540678
:1003D80054066502190673040D0803012D08140557
:1003E8000C055406250554065406540654065406AE
:1003F8005406540654065406540654065406540625
:10040800540654065406540632013E01C7015406E8
:10041800F901FE0054065406160226022E0268024E
:10042800C30254068C03DF034C03E1025406720333
:100438005406540654065406390546055C05540608
:1004480054065406540654065406540654065406D4
:1004580054065406540654065406540654065406C4
:100468005406540654065406540654063E015406CF
:1004780054065406540654065406540654065406A4
:1004880003045406540654065406540654065406E7
:100498005406540654065406540654065406540684
:1004A8005406540654065406540654065406540674
:1004B8005406540654065406540654065406540664
:1004C8005406540654065406540654065406540654
:1004D800D505540628065406960678078207DE06D0
:1004E80070075406C205D105C808540626075406E5
:1004F8005406350745075E07620754065406540636
:100508005406540654065406540654065406540613
:100518005406540654065406540654065406000657
:10052800F9035406C80854065406690554065406C7
:10053800540654068E07540654065406E9034FF031
:100548000008DFF86C9305E14FF00008DFF86493CA
:100558008AE300230DF1530233700123059273706F
:1005680015220AE00422C949CEE10D220123727046
:100578000DF15302059233700022B27000F0AABF49
:100588000422C34905A806F09EF8D1E00B22C14910
:1005980005A806F098F80822BF4905A806F093F8C0
:1005A8000722BE49B0E1E723337094F8F83073703E
:1005B8000DF1530305930023B3700421F6E3B4F857
:1005C800FE10DFF8E88205A806F09BF8D4F80021B1
:1005D800B34B9A420CBFB4F80411B4F8061105A83D
:1005E80089B206F08EF8AF49D8F808210978C2F325
:1005F800400343EA4103C2F3C00143EA8103C2F363
:10060800401143EAC10302F01001194305A806F09E
:1006180078F80023B8F80C01DFF89CE21A464FF28C
:10062800FF7C4FF0010912F90E10B1F1FF3F0CD019
:100638004CFA02FA1AF0010F07D040FA02FA1AF03F
:10064800010F1CBF09FA01F10B4301320C2AEAD150
:10065800D8F810E100224FF0010C93480CFA02F18F
:10066800084018B111EA0E0F18BF0B430132202AB7
:10067800F3D198F8CC20D8F8149152074FF0000223
:1006880048BF43F00103114610464FF0010E0EFA21
:1006980002FC1CEA090F07D01CEA030F1CBF0EFA64
:1006A80000FC41EA0C01013001321C2AEFD105A8F7
:1006B80006F013F8059B98F81821591C05911A7033
:1006C800BDF92830962B40F00487B4F81A1190E34E
:1006D800B4F82431DFF8E4A1B3F5806F94BF4FF08C
:1006E80000094FF003094FF000083AF9181041FAD1
:1006F80009F189B205A808F1010806F002F8B8F175
:10070800030FF2D1DFF8B8914FF0000839F828103C
:1007180005A808F1010805F0F4FFB8F1030FF5D1B9
:10072800002105A805F0EDFF002105A805F0E9FF67
:1007380000215EE3DFF88C914FF0000839F81810BB
:1007480005A808F1010805F0DCFFB8F1080FF5D19C
:1007580000F0BFBE94F85431984580F2BA8639F853
:10076800181005A805F0CDFF08F10108F2E7B4F864
:10077800561105A805F0C5FFB4F8581105A805F0ED
:10078800C0FFB4F95A310A2193FBF1F131E0D4F8F2
:100798005C1105A805F0A1FFB4F8601129E3B4F8CD
:1007A8006431D4F86811FF2B4FF6FF78A8BFFF23F8
:1007B8004145A8BF414621EAE1710DF1510233706C
:1007C80089B205A8059205F09CFFB4F86C1105A83C
:1007D80005F097FF94F87931D4F87C113BB10A23DE
:1007E80059434145A8BF414621EAE17101E001F3BF
:1007F8000F0189B2FDE294F8823133700DF1520293
:1008080094F881310592737000F063BEB4F88411D6
:10081800EFE2D4F8903125481A7832700DF1510181
:1008280005915B7873700DF1520205920023D0F8A0
:1008380090211E491A44013392F804E0059A032BCB
:1008480002F1010CCDF814C082F800E0EFD1D1F824
:100858009031DA79059B581C05901A70D1F89031BF
:100868009A78059B581C05901A70D1F89031DA785F
:10087800059B581C05901A70D1F8908105A8B8F806
:100888000A1005F03EFF98F80820E8E1540701082F
:10089800590701085E0701086A070108730701087C
:1008A8000054004090220020C0F11F0A34070020A5
:1008B800941D00200209002058F300085C0800205D
:1008C80064080020700800200023D4F89421D15C2B
:1008D800059A501C05901170D4F894211A44917A05
:1008E800059A501C05901170D4F894211A440133CC
:1008F800117D059A0A2B02F1010005901170E4D1CF
:1009080000F0E7BDC2492F2205A805F0DCFE00F083
:10091800E0BDD4F894319B7FC3E14FF00008D4F8D0
:10092800983113F8280003EB880905F0ADFB059B07
:100938004279591C05911A70059B99F80120591C98
:1009480005911A70059B99F80220591C05911A7097
:10095800059B99F8032008F10108591CB8F1140FF8
:1009680005911A70DBD100F0B4BD00224FF00609E2
:10097800D4F89C01DDF814E009FB02F143180EF1EC
:10098800010893F805C0CDF814808EF800C0405CCB
:10099800059901F1010ECDF814E008700599587811
:1009A80001F1010ECDF814E008700599987801F16D
:1009B800010ECDF814E008700599D87801F1010E00
:1009C800CDF814E008701979059B0132581C0C2ADF
:1009D80005901970CCD100F07CBD4FF000084FF0A5
:1009E80001094FF03B0AD4F8142109FA08F313421D
:1009F80012D05FFA88F005F047FB016803910846BA
:100A08000AF07AFB0399024605A805F05CFE059BEF
:100A18005A1C059283F800A008F10108B8F11C0FD0
:100A2800E1D100F056BD4FF000084FF00109D4F8AD
:100A3800142109FA08F3134208D05FFA88F005F088
:100A480023FB059B4279591C05911A7008F101088E
:100A5800B8F11C0FEBD100F03CBDDFF8C48105A84C
:100A6800B8F8101005F04DFEB4F8A01105A805F06F
:100A780048FEB4F8A21105A805F043FEB4F8A41185
:100A880005A805F03EFEB4F8AE1105A805F039FE3C
:100A9800059A531C059300231370059A511C059160
:100AA8001370059A511C05911370059A94F87911E1
:100AB800501C05901170059A98F80B10501C059061
:100AC8001170059A511C05911370D4F8B43105A81A
:100AD800198805F016FE059B94F86E21591C05919E
:100AE8001A70059B94F87221591C05911A70059B80
:100AF80094F87121591C05911A7094F87321AEE08D
:100B08000123059A511C059113700133092BF8D163
:100B180000F0DFBCDFF80C914FF0000839F818102E
:100B280005A808F1010805F0ECFDB8F1040FF5D1AE
:100B380000F0CFBCD4F8C03105A8598805F0E1FD14
:100B4800D4F8C031198854E1324B05A8196805F06A
:100B5800C4FD314B05A8196805F0BFFD2F4B196876
:100B680024E1D4F8C41121E1B4F8C81105A805F0AE
:100B7800C8FDB4F8CA1105A805F0C3FDB4F8CC1136
:100B880037E194F86E31337094F87231737094F8D9
:100B98007131B37094F87331E3E0B4F8741105A8B7
:100BA80005F0AFFDB4F8761105A805F0AAFD059B80
:100BB80094F87821591C05911A70B4F87A1118E143
:100BC80094F8F8306DE0DFF8588098F80830337002
:100BD8000DF15102B8F81410059205A805F091FD21
:100BE800B8F8101005A805F08CFDB8F8121005A883
:100BF80005F087FD059B98F80A20591C05911A7085
:100C0800B8F8161005A805F07CFDB8F81810F0E043
:100C180064F30008ACF7FF1FB0F7FF1FB4F7FF1F1E
:100C2800761D0020EC08002094F8AC3133700DF1EB
:100C3800520294F8AD3105927370B4F8AE1105A85C
:100C480005F05FFD059B94F8B021591C05911A70B9
:100C5800B4F8B11105A805F054FD94F8B321059B2B
:100C6800591C059100F0ABBC94F85431984580F2BA
:100C78003084059B19F81820591C05911A7009EB46
:100C8800480305A8597801EB810101EB810101F2C4
:100C9800EE2189B205F035FD08F10108E4E7C84BFB
:100CA800DB7A0DF15102059274E0DFF814E30023BA
:100CB800059A13F80E100133501C082B059011707B
:100CC800F6D100F006BC94F8F83033700DF15102FB
:100CD800D4F8C411059205A805F0FFFCB84B1A7AA0
:100CE800059B591C05911A70B4F8C81105A805F0A0
:100CF80008FDB4F8CA1105A805F003FDB4F8CC1135
:100D080005A805F0FEFCB4F8741105A805F0F9FC77
:100D1800B4F876116DE0DFF8C48208F1280908F20A
:100D2800211A18F9032C002313F90A10914200F034
:100D380013840C333C2BF7D108F10808C145F0D1D6
:100D4800C7E34FF000080DF1510386F800804146D3
:100D580005A8059305F0C1FC12E0002333707370F9
:100D6800B37015AA0592F370B3E34FF000080DF1C4
:100D7800530386F8008086F80180059386F8028080
:100D8800414605A805F0A9FC41460FE00DF15103C5
:100D98000593002333709CE38A4905A80B2205F0CC
:100DA80092FC002105A805F098FC002105A805F093
:100DB80094FC8EE3B4F8301205A805F0A2FCB4F850
:100DC800321205A805F09DFCB4F8341211E0D4F8ED
:100DD80038320DF151011A78327005915A787270D3
:100DE8000DF1520105919A78B2700DF153010591F8
:100DF800D98805A805F085FC6BE394F83C3233707C
:100E080094F83D3273700DF1530294F83E32059216
:100E1800B3705EE3C02200216B480EF020F94FF05A
:100E2800000C6A4962464FF001094FF0020A94F833
:100E38000203674B84453BDA4B7AD80734D50B7AE3
:100E480004EB4303B3F93C31002B2DDDD1F80CE062
:100E58001301E018BEF808800393DEF80430C0F8E8
:100E68004032A0F846824FF0000E09FA0EF010EA60
:100E7800080001D0704604E00EF1010EBEF1100F1B
:100E8800F3D1039B23440132A3F844024FF004003A
:100E9800A3F8488283F84BA283F84A02D3F84802A1
:100EA800C3F84C0283F84E920CF1010C0831BEE7EE
:100EB800D2B283F890230DF151013270454A059161
:100EC800C3F8942305E394F8CC305B0700F1018361
:100ED80015F8013C3E4A0895032B28BF002382F8E9
:100EE8001831C1E108A805F0E3FBF2E24FEA58081F
:100EF800B8F1120F79D84FF000090DF12C0AC84546
:100F080007D908A805F0D4FB2AF8190009F1010946
:100F1800F5E73149424600230BA8984505DD30F82E
:100F280013E021F813E00133F7E72B4B0021122AD5
:100F380003D023F812100132F9E7012384F8BC33F7
:100F4800C8E208A8D4F8C08105F0B2FBA8F80200EE
:100F580008A8D4F8C08105F0ABFBA8F80000B8E2F7
:100F680015F8013C84F8823117F8013C089784F899
:100F78008131AEE208A805F09BFBA4F88401A8E241
:100F8800D4F8943115F8010C9877089505F04CF8C9
:100F98009FE2D4F89421531E02F10900089A511CCB
:100FA8000891114611F802EB03F801EF0891517806
:100FB8009972D11C089192781A759842EED188E2FC
:100FC800761D00205E07010874090020340A0020FD
:100FD80034070020655D0008CC0A002007080020BF
:100FE80015F8013C0895132B02DD4FF0FF3371E231
:100FF800D4F8980117F801ECDFF8C8C40897002165
:10100800CA000CEB020898F80580F04500F0BC8295
:1010180001311C29F4D1E8E715F8013C08950B2BA0
:10102800E3DC17F8011CD4F89C0108970429DCDCE0
:1010380003EB430300EB43025171A91C0891697843
:1010480000F81310089B591C08911B785370089BD3
:10105800591C08911B789370089B591C08911B78A0
:10106800D370089B591C08911B78137131E2B8F1B1
:10107800090FBADDD4F8909115F8013C089589F864
:101088000030089B5A1C08921B7889F8013009F136
:1010980003000022089B591C0891022A93F800E0DB
:1010A80014BF6421FF21714502F1010228BF714676
:1010B800032A00F8011FEDD19A1C08925A78642A75
:1010C80028BF642289F80720DA1C08929B7889F8DF
:1010D8000230089B5A1C08921B7889F8033008A82C
:1010E80005F0E6FAB8F10A0FA9F80A0000F0F18154
:1010F800089B5A1C08921B7889F80830E9E108A86F
:1011080005F0D6FA6FF4AF6E00EB0E03DFF8AC8390
:10111800C62B98BFA8F8100008A805F0C9FAA4F8CB
:10112800A00108A805F0C4FAA4F8A20108A805F0CF
:10113800BFFAA4F8A40108A805F0BAFA089BA4F815
:10114800AE011A1D0892DA7884F879211A7988F89C
:101158000B20063308A80893D4F8B48105F0A8FA40
:10116800089BA8F800005A1C08921A4612F8021B9D
:1011780008925A7884F87221DA1C08929A7884F8CE
:1011880071211A1D089284F86E11DB789BE0DFF854
:1011980038934FF0000808A805F08AFA29F81800D3
:1011A80008F10108B8F1080FF5D192E108A805F097
:1011B8007FFAA4F8300208A805F07AFAA4F83202F7
:1011C80008A805F075FAA4F8340282E1D4F8388248
:1011D80015F8013C089588F80030089B5A1C0892BD
:1011E8001B7888F80130089B5A1C08921B7888F8ED
:1011F800023008A805F05CFAA8F8060069E1AC48D6
:1012080005F092FC65E115F8013C84F83C3217F8CA
:10121800013C84F83D32AB1C08936B7884F83E326D
:1012280057E194F8CC30580700F1538105F05CFF82
:101238001AE094F8CC30590700F14B819D4B4FF4DC
:10124800C8721A8045E194F8CC305A0700F1418100
:1012580094F8D63343F0040384F8D63339E194F88C
:10126800CC305B073FF5C1AE05F04EFE06F022F824
:101278002FE1002308A8C4F8C43105F003FAD4F814
:10128800C4311843C4F8C40123E108A805F010FAD2
:10129800A4F8C80108A805F00BFAA4F8CA0108A820
:1012A80005F006FAA4F8CC0113E115F8013C84F81E
:1012B8006E3117F8013C84F872316B7884F871311B
:1012C800EB1C0893AB7884F8733102E108A805F0A9
:1012D800EFF9A4F8740108A805F0EAF9089BA4F846
:1012E80076015A1C08921B7884F8783108A805F012
:1012F800DFF9A4F87A01ECE015F8013C089584F8C8
:10130800F830E6E0DFF8B48115F8013C88F80830D9
:1013180008A8089505F0CCF9A8F8140008A805F065
:10132800C7F9A8F8100008A805F0C2F9089BA8F8A2
:1013380012005A1C08921B7888F80A30099B9B1ADD
:10134800012B40F3C68008A805F0B2F9A8F81600EA
:1013580008A805F0ADF9A8F81800BAE015F8013C9E
:1013680084F8AC3108A817F8013C84F8AD31089727
:1013780005F09EF9089BA4F8AE015A1C08921B7848
:1013880084F8B03108A805F093F9089BA4F8B101D6
:101398005A1C08921B7884F8B3319AE015F8018C2E
:1013A8000895B8F1110F3FF720AE4FEA480804EB53
:1013B800080317F8012C83F8CE2108A8089705F030
:1013C80077F940F2ED23984205DD40F6CA039842CA
:1013D800A8BF184601E040F2EE20374B9844A0F22F
:1013E800EE20192390FBF3F088F8CF0171E0334B1E
:1013F80015F8012C0895DA726BE030490023089A39
:10140800501C089012785A540133082BF7D160E029
:1014180015F8013C84F8F83008A80023C4F8C43152
:10142800089505F02FF9D4F8C4311843089BC4F87F
:10143800C4015A1C08921A78204B08A81A7205F0A1
:1014480037F9A4F8C80108A805F032F9A4F8CA01C8
:1014580008A805F02DF9A4F8CC0108A805F028F98A
:10146800A4F8740108A805F023F9A4F8760130E07F
:10147800072398FBF3F3C3EBC30398457FF4B5AD9B
:10148800089A099B9B1A062B23DD531C089392F993
:10149800002000230A494FEAC308414491F9021089
:1014A800914200F08E800133052BF3D19DE500BFFA
:1014B800281B0108741D002034070020761D002019
:1014C8000208002094F30008F20A0020494BC4F8EF
:1014D80094330123ADF81E3005A9059B02980693A5
:1014E800059604F026FF002305F8053CD4F894334C
:1014F80023B1029898470023C4F8943315F8053CA3
:10150800EBB955F8093CD3B1019AC2B954AA0C9267
:101518004FF6FF7214AEADF83420BDF804200B96D8
:10152800ADF836200BA8984730B10B9B02980C9366
:101538000BA90B9604F0FDFE002345F8093C0BF1BE
:10154800010BBBF1020F05F1500507F150077EF4BE
:1015580020AE55B0BDE8F08F059B591C05911A7057
:1015680038F8011C05A805F0CCF842460023059977
:1015780012F8010F013301F1010E042BCDF814E02C
:101588000870F4D1FFF7D8BBDFF878E072441BB2DB
:1015980092F8402000F8232000EB8301089B5A1C96
:1015A80008921B784B70089B5A1C08921B788B700A
:1015B800089B5A1C08921B78CB700F4B00221A709C
:1015C80087E70E4B03EB080908A889F8D02005F037
:1015D8006FF80B4BA9F8D20008F1050898440023CE
:1015E800089A511C08910133127808F8012F042B2E
:1015F800F6D145E71D5F00080000002034070020F1
:101608000208002058F300082DE9F04FA14EA24C23
:10161800326802F582432DED028B1A3323609F4B0B
:101628001D7889B02DB99E4FDFF8A482DFF8A49207
:1016380007E09C4909688A4240F27681013D1D70A5
:1016480072E13B78E9B28B4209D9072998BF11F8B2
:1016580008109348D9F8003098470135F1E7237905
:101668008D4A0133237163790133DBB23C2B01D8F6
:10167800537107E08C490B78002050710BB108704A
:1016880001239371012207A9072007F07FFB9DF82A
:101698001C305A0616D520228449612007F076FBB3
:1016A800824B03F1210203F1100153F8040B42F8B5
:1016B800040B8B42F9D19DF81C10072009F000FD9E
:1016C800002302E094F83830013384F8383094F875
:1016D8003830774D3C2B05D96F4B3C2283F83820A6
:1016E800A3790BB1002300E00123AB73AA7B704BF5
:1016F80012B9197B022936D12B7B23B940F2DC536E
:1017080063862386A3866B4B95ED027A1B881B079D
:1017180058BFE38DF3EE047A58BF43F00403B4EEE8
:10172800E77A58BFE385F1EE10FA16D594F8393008
:10173800E28D59490133DBB222F00400E0853C2BED
:1017480040F2645084F83930E08609D93C2322F00D
:10175800050281F83930CA8502E0002384F839305F
:1017680001232B7400E01A74D5ED027A9FED527AAA
:10177800F4EEC77AF1EE10FA0ADD9FED507AF4EE36
:10178800C77AF1EE10FA03D594F83A30013300E045
:10179800002384F83A3094F83A203F4B0A2A13D9A8
:1017A8000A2283F83A20DA8E40F271618A4202D91D
:1017B80040F22C6207E040F2D6518A428CBF40F2D8
:1017C8008C524FF4AF62DA86A779334A002F2ED0B5
:1017D8003B4BD08D197911F0010F14BF40F0010077
:1017E80020F00100D085E28D88074CBF42F004024A
:1017F80022F00402E285E28D09074CBF42F008029C
:1018080022F00802E2851A78920002F577722286A1
:101818005A78920002F577726286DA789B7892009D
:101828009B0002F5777203F57773A286E386254954
:10183800254809F057FC08B1002F75D0E38D164FE5
:10184800DA0749D597F83B302BB197F83C3013B1FC
:1018580009F080FB01E009F0ADFBB5F9040009F0DF
:10186800A5FD002221F00041184B0AF095F858B95F
:101878000F4BB3F9020009F099FD002221F0004155
:10188800124B0AF089F898B3002384F83B3009F02A
:1018980091FB2DE020150020A80D002070240020C9
:1018A800880800206C2400208C220020AF0D002026
:1018B80068220020400800200000484400009644A8
:1018C80087220020D00D00204708010800E085404D
:1018D800761D00200400002009F06CFB012387F826
:1018E8003B302B88632B94BF0023012387F83C30BF
:1018F800E38D1B0703D506F063F801236B74AF482B
:10190800AF49002283181B89B3F5FA6F06D8B3F5DF
:101918007A7F38BF4FF47A731BB201E04FF4FA6351
:1019280053520232082AEDD1A64B1A6812F4805F8E
:101938009B4605D0A44B1B68DF0701D409F03AFB8E
:10194800A24A3068D37A0192D3B19D4A013B32F959
:1019580013309E4A527B1AB1C3F53B6308331BB25E
:10196800A3F57A73B3F57A7FA8BF4FF47A7323EAA5
:10197800E37307EE903ADFED966AF8EEE77A38E01F
:10198800DBF80020150440D5226C924D821A002AFB
:101998003BDB00F59C4220322A648F4A517A8F4AF9
:1019A80032F811108AB20199097B92FBF1F195F88E
:1019B8004420013202F00F0285F844202A444535BC
:1019C80082F8451019464A5D01311A44102913B2AC
:1019D800F9D193FBF1F31BB2002B03DB642BA8BFF7
:1019E800642300E0002307EE903ADFED7D6AF8EE0D
:1019F800E77A87EEA67A7B4ADFED7B7A67EE277A6D
:101A0800FCEEE77A17EE903A1380DBF80030DFF847
:101A1800F4A113F4807F00F00D81744BDFF8D091AE
:101A2800984205D999F8022012B9012289F80220B2
:101A380099F80220002A00F0FD806D4A9AF80050BB
:101A480092F82180604A6B4E11686B4F039205F043
:101A5800040501F08063EDB2029399F82020052A6D
:101A680000F2E880DFE802F00345587888D09DB39B
:101A7800624A1268D08805F0DDFF012807D1B7F85F
:101A880005103268642000FB0122C9F81020029B6F
:101A98004BB13A793AB104F0D9FA032289F82020F7
:101AA8004FF47A7235E0B8F1010F00F0C380316865
:101AB800D9F810004E4A88420AD2049204F0C6FAB5
:101AC800049A032182F8201040F6B831D161C4E7A6
:101AD800012182F82010C0E7029B4FF4806013B107
:101AE80005F0E0F901E004F0E1FA0022C9F810205D
:101AF800A0E0B8F1010F54D0FA79012A02D004F01D
:101B0800A5FAAAE704F0A2FA032289F8202040F6F1
:101B1800B832C9F81C20A0E7B8F1010F04BF0522AC
:101B280089F820205DB1019B254AB3F91010118076
:101B380051809180B978F87841EA0021D1803268E3
:101B4800D9F81410914201D3002D6FD147F23052C9
:101B5800C9F81C20032225E09AF8002042F002026E
:101B68008AF8002009F026FA3268D9F81C100A44CD
:101B7800C9F81820042215E0B8F1010F15D1326810
:101B8800D9F81810914255D21D4B1A781AB9039BEF
:101B98001A68D1074ED49AF8002022F002028AF877
:101BA8000020052289F8202057E7124AD9F81C108E
:101BB80012680A44C9F818203CE000BFD00D002084
:101BC800941D0020901D002044080020761D002050
:101BD80000007A44A80D002034240020402400206E
:101BE8000000C842A008002000C07F44404B4C00C1
:101BF8007424002018150020E00800206C0900203B
:101C08000000002000080020B7F8051032686420A2
:101C180000FB0122C9F810204FF48060002289F8E7
:101C2800202089F8032004F041FA16E7B8F1010FE3
:101C38003FF413AF8C4B1B68D88805F0FBFE019B63
:101C480080468A481B8AB0F90220029003F10B01F2
:101C580091420BDB0B3B9A4208DBB0F90020914222
:101C680004DB9342CCBF0023012300E00023B8F13A
:101C7800000F10D17E4A1268120112D57D4AD2781F
:101C88007AB99AF8002057070BD523B17A4A137806
:101C980043F0200303E0784A137823F020031370FD
:101CA8000CE0764A7648002313605360754A036057
:101CB8000021116043605160836091609AF80030A0
:101CC8005E072FD5DBF80030DD062BD56A4B1B7875
:101CD800D80627D46C4B1B788BB16C4B9B78B8F12A
:101CE800000F11D173B16A4B1A68A36D9B1A002BB0
:101CF80008DA09F05FF9674B83F85C8012E0B8F105
:101D0800000F09D101230BE033B1614A12684FF487
:101D18007A7101FB0323A36594F85C3013B10023A7
:101D280084F85C30594B1E785A78019B588A9D8AF2
:101D380000231F46029931F91310BF088142C4BF1E
:101D480067F07F07FFB20133A942B8BF47F04007E9
:101D5800042BEFD194F85D304E49BB4205D191F880
:101D68005E30F92B04D8013300E0002381F85E309F
:101D7800454D84F85D702B78FBB93D4B1B68D9073E
:101D880009D5B8F1000F18D19AF80030DB0714D53F
:101D980009F0E0F811E09AF8003058070DD53D4BEE
:101DA80093F85F304BB1334BDB7833B912B109F09C
:101DB80001F902E0B8F1000FF9D094F85E30354A25
:101DC800142B7CD12B78D3B15F2F09D19AF800302E
:101DD80003F0040303F0FF0163B982F85E1021E009
:101DE8006EB17D2F0BD19AF8003003F0040303F095
:101DF800FF0113B109F0DEF801E082F85E109AF8ED
:101E0800003059075BD4572F0CD14FF47A73A4F8DC
:101E18006030214B1B685A0751D51E4B0A22A3F884
:101E280062204CE0DBF800305B0713D55A2F11D144
:101E380094F86420174B32B1002283F86420012201
:101E480083F865203BE093F8662082F0010283F86E
:101E5800662034E05D2F00F076835B2F00F07583F9
:101E68005E2F1BD1032371E36C090020941D002011
:101E780044080020742400200A0B0020B41200201B
:101E8800981200204813002000000020B408002009
:101E980018150020A80D00203C080020562F03D15B
:101EA80005F032F805F006FA2B78002B00F05A837B
:101EB80094F85D306F2B40F0518309F04BF8DBF854
:101EC80000305F0739D594F86630AA49AA4A9BB111
:101ED8009AF800305E070FD5029BB3F90600019B04
:101EE8005B8A984208DD136813F0010302BF3220B1
:101EF800A1F8680081F866301368DD030DD594F801
:101F08006A209C4B2AB993F8642012B93222A3F8AC
:101F18006820012384F86A300FE094F86430954A09
:101F28005BB19AF8003003F0040303F0FF0123B912
:101F3800012382F8641082F86530904B1E680027F0
:101F4800B51C4FF0010852362A786B789A420AD2AB
:101F5800294615F8010C05F019FB20B115F8023CCB
:101F680008FA03F31F430435B542EDD1824B1F60D5
:101F7800834B1E782EB1804E3368980700F1F781A5
:101F8800EEE1804BDFF810921F684FF001087D1CCE
:101F9800493729786A78914205F1FF332AD22946D0
:101FA80015F8010C039305F0F1FA18B328790C23FE
:101FB80003FB00FE09EB0E02039B9168994219D0BE
:101FC8009360E97809F80E105660A9785170A978DD
:101FD8000C2903BF032382F80280D370967018BFC0
:101FE80082F8038094F86B2008FA00F022EA0000D7
:101FF80084F86B000635AF42CBD1634A634B126855
:102008000392D3F8009094F85F20614E0492002761
:10201800059396F80080B8F1000F00F09A81D6F881
:102028000330039AD31A002B0CDB02F5FA73C6F8B7
:102038000330012303FA07F294F86B3023EA020312
:1020480084F86B30049B002B00F0838116F8013C68
:1020580072780433DBB2002A40F04281029A32F9E6
:102068001320019B1B8A03F1C8018A4201DDB57860
:1020780014E0C83B9A4202DAB5786D420EE00123BB
:1020880003FA07F294F86B3023EA020384F86B3002
:10209800039B03F5FA73C6F803305AE194F86B30E2
:1020A8003B41D90700F1558108F1FF33252B00F298
:1020B8004881DFE813F026002A0033003A0049007F
:1020C8004E007300840095009B00A10046013A0071
:1020D80044004E007300840059007E008F00B90050
:1020E800BF00C500010107010D01FB00CB00D100B5
:1020F800D700DD00E300E900EF00F500A700AD0020
:10210800B300FA222946484603E06422294609F129
:10211800010005F0A9FC05F0AFF812E16422294698
:1021280009F1030005F0A0FC09E16422294609F140
:10213800050005F099FCB8F10D0F00F0028164224A
:10214800294609F10400C8E0FF22294609F10600E2
:10215800C3E0104B1868C8222946013005F084FCFA
:10216800B8F10F0F00F0ED800A4BC8222946186815
:10217800B3E000BFA80D002044080020CC080020D0
:10218800D4070020D008002018150020C40800201B
:10219800A5150020C8080020A41500208E4B18683B
:1021A800C82229460B3005F05FFCB8F1100F00F08B
:1021B800C880894B1868C82229460A308DE0864BAA
:1021C8001868C8222946153005F04EFCB8F1110FE1
:1021D80000F0B780804B1868C822294614307CE08C
:1021E8007D4B1868C8222946023076E07A4B186879
:1021F800C82229460C3070E0774B1868C822294657
:1022080016306AE0744B1868C8222946073064E023
:10221800714B1868C822294611305EE06E4B186869
:10222800C82229461B3058E06B4B1868C82229463B
:10223800033052E0684B1868C82229460D304CE03C
:10224800654B1868C8222946173046E0624B186863
:10225800C8222946043040E05F4B1868C822294646
:102268000E303AE05C4B1868C8222946053034E045
:10227800594B1868C82229460F302EE0564B18686B
:10228800C8222946193028E0534B1868C822294625
:10229800063022E0504B1868C822294610301CE04E
:1022A8004D4B1868C82229461A3016E04A4B186860
:1022B800C8222946083010E0474B1868C82229462A
:1022C80009300AE0444B1868C8222946133004E054
:1022D800414B1868C82229461D3005F0C5FB30E07F
:1022E800012A2ED1029A32F91320B2F5617F05DB5B
:1022F80040F633039342A8BF134601E04FF46173DD
:10230800B8F10C0F1DD1A3F56173B1784FF4966243
:1023180092FBF1F293FBF2F3304A1278DBB29A4265
:102328000FD0032B2D4A28BF002313702C4A08FB1B
:102338000323059A136004F09FFF04F083FF04F061
:1023480037FF012303FA07F294F86B30134384F83C
:102358006B300137042F06F10C067FF45AAE0AE6FB
:10236800DBF80030DA0512D51E4BDB787BB11E4B4B
:102378001B689B070BD51D4B1D8815F001050BD15C
:102388001B4B01201D605D6004F08CFD05E0012001
:1023980003F08CFE012500E0002533685F0710D5A7
:1023A8007DB1012003F082FE104B1B8803F002036D
:1023B8009BB24BB90E4A02201360536004F072FDC1
:1023C80002E0022003F072FE33681D054FF48070AE
:1023D80010D504F067FD0FE0C8080020B0230020E6
:1023E800B2230020742400203C080020400800206C
:1023F800B412002003F05AFE7B4B1B78082B01D047
:102408000E2B02D1402003F051FE9AF800305807F5
:102418006CD43568DFED757AE9075EBF744A43F01E
:1024280001031370734BDB7800EE103AB8EEC00A64
:1024380020EE270A04F094FA6F4B93ED088AB4EE65
:10244800C80AF1EE10FA5EBF9AF8003023F00103D3
:102458008AF80030F0EE408A08F0B6FD18B9674BEC
:102468001B88632B05D99AF8003023F001038AF8FA
:10247800003008F0A9FDA8B96A0116D4604B93F89A
:102488002030032B11D0F4EEC88AF1EE10FA0FD5E4
:102498005C4B1B787BB9594B5B4D1B88632B98BFF2
:1024A80000250AE048F2551507E040F6150504E056
:1024B80042F2550501E040F20525E56603F09CFE71
:1024C800236F524EC31A002B10DD736F012B9EBF72
:1024D80000237567F366636F13B14C4A5B08536753
:1024E80000F54330494B00F5A0701867012384F8C4
:1024F800783094F87930454D002B70D0EB8D5B0720
:102508001DD5434B1B78D3B1424B1C8804F00804FB
:10251800A4B2002C63D1082004F0C4FC3E4B1A6816
:102528003E4B1A60029BDB88A5F87A303C4BDB886F
:10253800A5F87C303B4B1C603B4B1C604FE00820EF
:1025480003F0B4FD4BE0012300E00223374A013BCE
:10255800137004F0D9FC04F0ADFEB0E416B17E2B84
:102568003FF4ABAC94F85D30972B04D1304B4FF46B
:10257800C8721A80A3E4A72B05D12E4A137843F01A
:10258800040313709BE40022BB2B079201D10223A2
:1025980003E0B72B04D14FF6FE73ADF81E300AE006
:1025A800BE2B01D1022304E0BD2B7FF488AC4FF68B
:1025B800FE73ADF81C30204BBDF81C201B68198831
:1025C8000A441A805988BDF81E200A445A8004F02B
:1025D8009BFC04F06FFE002384F85E306FE409B0C2
:1025E800BDEC028BBDE8F08F2C08002035FA8E3C3C
:1025F80000080020B4080020B41400204E08002071
:1026080074240020D407002055050200A80D0020DE
:102618009022002040080020900800205415002037
:102628009012002060150020641500204C0800203E
:10263800741D00200A0B0020F408002010F80A3C42
:102648000133DBB20A2B00F80A3C07D910F8131C37
:10265800034A002322F8113000F80A3C704700BFF3
:10266800E823002070B5514C237814200133B3FBC4
:10267800F0F200FB123323704D4B5D68186C9A68BA
:10268800A942084409D293F8485085B100F5803032
:10269800824211D24FF480350BE082420CD293F87B
:1026A8004850002D0CBF00254FF4803501E08242D0
:1026B80002D2821A521B02E0C2F5803202449860AC
:1026C8006078596000251421013083F8485090FB48
:1026D800F1F501FB15006070A078DA600130DD6863
:1026E80090FBF1F601FB1601A17040F68C218D429A
:1026F8002F4A3CD9117892F94540A14208460CD19D
:102708000C1F082C09D892F84640182C9ABF01349F
:1027180082F8464082F8441002E0002283F84620FE
:1027280093F94440224AA14219D192F84740B4B1E2
:10273800204D0C3200248C4205DA52F8046F25F83B
:1027480014600134F7E71B4A00240C2803D022F850
:1027580010400130F9E7184802780132027001226E
:1027680083F84720002283F845101A7070BD92F84C
:102778004710C9B1A5F2EF2040F2DA51884208D8D3
:1027880011780B2905D80B1D0131117042F823501F
:1027980070BD002283F84720084B03F1300143F84D
:1027A800042F8B42FBD170BD70BD00BF280E0020E6
:1027B800F0050020E82300203D230020FC05002030
:1027C80010B50B48037814240133B3FBF4F204FB6F
:1027D8001233084A0370136C01330B4413644FF629
:1027E800FF73994204BF012382F8483010BD00BF2F
:1027F800280E0020F0050020024B53F820301B68FB
:102808001960704760130020064B53F820301A688F
:102818001B89A1F57A7159434FF47A7391FBF3F14F
:102828001160704760130020224B10B5224C5A43A8
:10283800224BB3FBF2F203880139013AA04289B274
:1028480092B29BB20ED004F50064A0420AD0B0F157
:10285800804F07D0A4F59834A04203D004F58064D3
:10286800A04202D123F070039BB2154CA04206D0BF
:1028780004F58064A0421CBF23F440739BB203801C
:102888000D4BC162984202850FD003F50063984250
:102898000BD003F54063984207D003F58063984254
:1028A80003D003F58063984201D1002303860123F6
:1028B800436110BD40420F00002C014000A24A04B1
:1028C80000100040026E036B70B50446D5699BB9D1
:1028D800A90611D5C36A1BB1908C80B298470BE04A
:1028E800E169928C40694E1CD2B2E6614254E169BA
:1028F800E268914228BFE361616BA1B92A0612D54B
:10290800636AA26A9A42236E09D0501CA669A06223
:10291800B25C1A852369984205D3A16203E01A685C
:1029280022F080021A602B0742BF236E08221A6227
:1029380070BD026BC168034610B5406942B11A6C9C
:102948008C1A013A005D08BF0A46C0B21A6410BD6D
:102958001A6A805C01328A4228BF0022C0B21A6219
:1029680010BD436B13B190F844007047836A406A06
:102978001B1A584258417047426A816A03698A4261
:1029880038BFD218521A416B21B149680A44591EFE
:102998008A4203D2013B981AC0B2704700207047A0
:1029A800036B13B15B68026C01E0C369026A93426E
:1029B8003CBFC0681B18981AC0B27047836A816907
:1029C800426B1944D160416A8B4223BF0169CB1A1B
:1029D8005360CB1A2ABF0023536083624FF0000371
:1029E80080F84430136838BF816243F001031360F4
:1029F800704730B40468057B62680223AB40134318
:102A08004268636010684FF6FE730340136051F824
:102A18002C2C51F8283C9A4203D0A1F1500030BC2C
:102A2800CCE7012301F80C3C30BC7047436A82694B
:102A3800D154436A02690133934228BF0023436299
:102A4800436B1BB11B68DB0705D4B7E7026E13683D
:102A580043F0800313607047054B98420CBF054A4A
:102A6800054A138801339BB213800020704700BFCA
:102A780000540040380800203A08002038B510F803
:102A88000E2C50F8043C04465AB9012200F80E2CCA
:102A980020F80C1C997A18680222BDE8384005F025
:102AA8006DBC30F80C2C20F80A1C891A89B220F861
:102AB800081C084A10F80F0C002522F8101004F81A
:102AC8000E5C2A46997A186805F058FC04F8065CEA
:102AD80038BD00BFE82300202DE9F0470669C36828
:102AE800054689461E404FF000474FF00008002E6B
:102AF80038D0B6FA86F327FA03F2D2431B3B2A6191
:102B08001640042BF3D8DFE803F026221E1A030030
:102B1800D9F8244024B1013CA4B2C9F8248001E0CA
:102B2800EC6AA4B2D9F820A0BAF1000FDFD0DAF825
:102B38000030504621469847DAF804A0F4E7D9F85F
:102B48000000696B0AE0D9F80400A96B06E0D9F81F
:102B58000800E96B02E0D9F80C00296C036889B217
:102B68009847C4E7BDE8F08701490248B4E700BFC9
:102B7800801400200048014001490248ACE700BF2A
:102B8800301400200040014001490248A4E700BF7A
:102B98000814002000080040014902489CE700BFD3
:102BA800E01300200004004001494FF0804093E703
:102BB800B813002010B5054C05482146FFF78CFFD7
:102BC80004F1C8010348BDE8104085E790130020D0
:102BD800002C014000440140014902487CE700BF45
:102BE80090130020002C014073B505460068FFF7DC
:102BF8001BFE2A6813889BB243F001031380EB7A0B
:102C08008DF804300124002601A88DF805408DF8C0
:102C180006608DF8074008F07DF9EB7A1B2B0BD185
:102C2800192301A88DF804308DF805408DF8066049
:102C38008DF8074008F06EF902B070BD134B800A9A
:102C4800984220D00AD84A3B984212D00133984281
:102C580011D0B0F5801F14D1012070470C4B984259
:102C68000BD0013398420AD0023B984209D1042084
:102C780070470220704703207047052070470620E0
:102C88007047FE2070470020704700BF4B001000BF
:102C980051001000F8B5046806462046FFF7CEFF3D
:102CA80006284CD8B57AAF0849B9022505FA07F3C2
:102CB800D4F80CE0DB439BB203EA0E03E3600A237B
:102CC8001F4D03FB007345F82310043345F82320F8
:102CD80041B1B37AE1689B08022202FA03F39BB27E
:102CE8000B43E360282202FB00522032EFF31286E6
:102CF800502383F3128803B203EB8303DB0003F151
:102D08000C011C3329442B4451F8047F17B1176078
:102D18000A6804329942F7D100231360F3B283F3AF
:102D28001188282303FB0050036A1BB1E36843F0B2
:102D3800010303E0E2684FF6FE731340E360F8BD59
:102D4800901300200048BDE5101700200048B9E5A1
:102D5800AC1600200048B5E548160020F0B5046E12
:102D68008668236823F001032360054683796A791E
:102D780013F0020F0CBF00274FF4005713F0040F95
:102D880014BF4FF48060002012F0010F14BF042319
:102D980000239207226822F001022260616821F470
:102DA800405141EA07016160226822F4B05222F0E2
:102DB8000C0248BF43F00803024313432360A3688F
:102DC80095B023F44073A360684605F0A5FC284B32
:102DD8009C4201D10C9B0EE0264B9C4201D10D9BDD
:102DE80009E0254B9C4201D10E9B04E0234B9C42F9
:102DF8000CBF0F9B109B2268A879170448BF5B0083
:102E0800B3FBF6F206FB1233B3EB560F236828BF69
:102E180001321E0441BF4FF6F073C2F34201134062
:102E280041EA03026B7992B213F0020FA28100F01B
:102E3800010114BF4FF400320022DC0748BF42F4FE
:102E480080322B6E11B159680A4302E0596821EAB1
:102E580002025A609A6801074CBF42F0080222F049
:102E680008029A601A6842F001021A6015B0F0BDB3
:102E7800003801400044004000480040004C004039
:102E880041716BE7816069E7F7B506460D46002496
:102E980001272A8807FA04F31A421AD0AA7800935D
:102EA80002F003038DF80430EB78022B03D0032BD8
:102EB8000CBF032301238DF805306946C2F30113C3
:102EC8003046C2F381028DF806308DF8072005F0F0
:102ED80093FD0134102CDCD103B0F0BD2DE9F7438C
:102EE800DFF8109299F803400546164600680A462E
:102EF80098463146631C89F80330FFF795FC2B8907
:102F0800ADF8043001A9022368688DF806308DF801
:102F18000730FFF7B9FFAB7A2A6809F104072401E3
:102F2800274449460C2B00F2B780DFE803F007B5C9
:102F3800B5B53EB5B5B56AB5B5B59300136ADFF852
:102F4800B8C123F001031362136AD2F804E0906950
:102F580020F4803020F07300624540F0700012D0F9
:102F68000CF5006C62450ED00CF5406C62450AD039
:102F78000CF5806C624506D00CF5806C624502D079
:102F880043F0030307E023F00E032EF4407E43F0E2
:102F980003034EF4807EC2F804E09061C2F83480E6
:102FA8001362936943F0080329E0136ADFF848C104
:102FB80023F010031362136AD2F804E0906920F03A
:102FC800807020F4E640624540F4E04006D00CF5FD
:102FD800006C624502D043F0300307E023F0E003C1
:102FE8002EF4406E43F030034EF4806EC2F804E0D5
:102FF8009061C2F838801362936943F40063936167
:103008004AE0136ADFF8F0C023F480731362106A91
:10301800D2F804E0D369624523F0730343F07003E8
:1030280006D00CF5006C624502D040F4407007E011
:1030380020F460602EF4405E40F440704EF4805EF0
:10304800C2F804E0D361C2F83C801062D36943F04F
:10305800080320E0136ADFF8A0C023F4805313624A
:10306800106AD2F804E0D369624523F4E64343F4D6
:10307800E04340F4405003D00CF5006C624501D1A8
:103088004EF4804EC2F804E0D361C2F8408010626A
:10309800D36943F40063D3612B7B1BB1536C43F4B6
:1030A8000043536413889BB243F001031380AB7A47
:1030B8000C2B18D8DFE803F0071717170B1717178B
:1030C8000F17171713000B1902F134000AE00B1938
:1030D80002F1380006E00B1902F13C0002E00B197E
:1030E80002F1400058600C443846A681A26003B043
:1030F800BDE8F083280E0020002C0140F8B5444EAE
:10310800444C4000C7B24FF480553068C4F8C450EE
:103118004FF0000ED0F818C01CF4004F46D1BEF195
:10312800000F01D0C4F8C450FF291FD0D0F804E024
:10313800394D0EEA050545F490353D4345604FF499
:103148008055C4F8C450D0F818E01EF0020F42D0E1
:103158004FF480558162C4F8C4500021D0F818E0BB
:103168001EF0400F3DD009B1C4F8C45045682A4943
:10317800294041F0007141F4105141EA02413943BC
:1031880041604FF480514AB1306885696D0717D5A1
:10319800416A03F8011B013AD2B2F2E73068C4F879
:1031A800C4100B468169890629D521E0AC464FF049
:1031B800010E013DBCF1000FACD1C4F8C45004E0CD
:1031C80011F1FF31E1D2C4F8C410FFF745FC00301B
:1031D80018BF0120F8BDAE46013DBEF1000FB2D1C7
:1031E800EBE7AE460121013DBEF1000FB6D1E4E7A1
:1031F8000AB1C4F8C4302023C3610120F8BD1946C0
:103208000122013B0029CDD1C4F8C430DDE700BF5D
:1032180034080020280E0020009800FC400070B5FB
:10322800C5B23448344B00684FF48054C3F8C440E6
:103238008669360418D44668304C344044F08074AB
:1032480044F490342C4344604FF48054C3F8C44091
:103258008669B6072BD54FF480548162C3F8C44001
:1032680081690E0628D506E02646013C002EDFD1EE
:10327800C3F8C44015E044682049214041F000717A
:1032880041F48031294341604FF48051C3F8C410A0
:103298008469A50715D40C460139002CF8D1C3F868
:1032A800C410FFF7D9FB003018BF012070BD2646B7
:1032B800013C002ECCD1DBE72146013C0029CFD1CF
:1032C800D6E782624FF48052C3F8C4200021846993
:1032D800A40606D509B1C3F8C4202023C361012080
:1032E80070BD14460121013A002CF0D1C3F8C42066
:1032F800D7E700BF34080020280E0020009800FC03
:103308001549D1F8883043F47003C1F88830134B5D
:103318001A6842F001021A605868114A02405A605D
:103328001A6822F0847222F480321A601A6822F431
:1033380080221A605A6822F4FE025A60DA6A22F081
:103348000F02DA62186B074A02401A6300229A6079
:103358004FF000638B60704700ED00E00010024002
:103368000CC07FF8CCFC00FF2DE9F04F2DED0C8B45
:10337800C44BDFF850839B78C34D93B003BBD8F898
:103388000030C24A9B8CDFEDC28AC24C138007EE24
:10339800903AB8EE670AC04B60EE280A0121204631
:1033A800C3ED000A03F0E4FAFCEEC07A04F10E0063
:1033B80017EE903AA3816B689847A046A8B997E0A2
:1033C800D8F80030B54E5C6AB54FEB684BB902F0DF
:1033D80013FF33683A68E31A184464329042F4D30E
:1033E800CDE798470028F2D0C9E7AE4DB4F90E30C2
:1033F8002B60B4F910306B60227DB4F91230AB60E9
:103408002946284607F028FC238B002B78D1A64EA6
:10341800DFF8B4923388002B5FD098F816309FED10
:10342800A39A002708EE103AA9F14802A9F13C0432
:10343800BA464FF47A70B6F800E0BEF57A7F08BF56
:10344800C2F800A0136808BFC4F810A0194655F8C0
:103458002730194455F82730116007EE903A236950
:103468000133012B4FEA870BF8EEE77A236140F02E
:10347800D980C4ED017AC4ED007A84ED029ABEF1D8
:10348800010F45F80BA049F80BA040F0EF80236925
:103498000490012BC3BF03F1FF3307EE903A94ED7C
:1034A800037A9FED820A0392C4BFF8EEE77A87EEAB
:1034B800270A0AF055FD039A049818EE103A002BD3
:1034C80000F0CD80F8EEC87AF4EEC07AF1EE10FA8A
:1034D80040F1C5804FF47A733380002355F82320D8
:1034E80059F82310521A45F823200133032BF5D13C
:1034F8006F4B704F1B6813F0020F40F0E78067E3D3
:10350800A27E002A59D107EE903A9FED6B7A644B60
:10351800F8EE677AB7EE008A67EE877A93ED007A5D
:10352800B8EE477A27EE287AC8EE076A87EEA69A99
:10353800B0EE490A03F0B2F9B0EE40AAB0EE490A7B
:1035480003F00EFAF0EE409A9FED5C0A69EE007AFD
:1035580087EE8A0A03F0A2F904F1200304F18C0132
:103568000022F0EE487A38EE696AEAEE007AB6EEA2
:10357800007A26EE077AAAEE408AC7EE276AB8EEE6
:10358800007A69EE879AC6EE275A88EE277A89EE7E
:10359800A76A5A611A61DA619A61243343ED0A6AAB
:1035A80043ED095A43ED086A03ED076A03ED067A0D
:1035B8009942EED1012388F81A30414C002655F87B
:1035C8002630D4ED046A94ED000A14ED015AD4EDC6
:1035D800014A94ED067A94ED026AD4ED035A07EE97
:1035E800903A26EE800AF8EEE77A2434A7EE850AA8
:1035F80014ED045A44ED057AA4EE850A44ED046AF4
:10360800A6EE470A14ED026A04ED027AA5EEC60A90
:1036180004ED030A0AF0C0FA45F826000136032E25
:10362800CDD1F4E6D4ED005A07EE103A37EEE56A4C
:10363800B8EEC77AC6EE076A36EEA57AD4ED026A06
:1036480084ED017A77EEC77A84ED007AE6EE276A90
:10365800F0EE667AC4ED036AC4ED026A0FE71368F8
:1036680003F5FA7393FBF0F349F80B300137032F96
:1036780002F1040204F114047FF4DDAE3388013B47
:103688002AE700BFB80800203413002032080020C1
:10369800BD378635480F0020C412002020150020B1
:1036A8001813002064080020080E00200000000005
:1036B8003C08002068230020DB0FC940CA92283F3D
:1036C800680F002010150020181000207E4B1B7872
:1036D800002B00F07D8202F08FFDD8F8DC50DFF877
:1036E800ECA1DFF8EC91C8F8DC00431B0DEE103AB2
:1036F8000024DAF80030754D1978754EA1B157F8E5
:103708002430F8EE4D0A07EE903A724B0C20B8EED2
:10371800E70A00FB043060EEA80A03F029F9FDEE81
:10372800C07A17EE903A01E057F8243029F814309F
:103738000134032CDDD1B6F90090B6F902A0B6F930
:1037480004B0D8ED415A644A039209FB09F30AFB15
:103758000A330BFB0B3364245C43F8EE4D7A5F4B62
:10376800178993ED026A9FED5EBA67EEA88AD3EDDA
:10377800007AF8EEE76AD3ED017AF8EEE77A26EEFA
:10378800A5CA67EEA5BAB8EEC66A2BEEAB0A66EE16
:1037980025AAACEE0C0AB7EE008AAAEEAA0A0AF02D
:1037A800DFFB07FB07F3039A94FBF3F3523B262B4B
:1037B800F0EE40CA17464B4C3BD807EE909AB8EE4D
:1037C800E79A07EE90AA29EE090AF8EEE79A07EEBB
:1037D80090BAA9EEA90AB8EEE7AADFED437AAAEEF5
:1037E8000A0AB4EEE70AF1EE10FA22DD0AF0B8FB95
:1037F800C8EE007A94ED077A94ED085AD4ED065A8B
:103808002AEE27AA29EE279A69EEA79A67EE4A7A3E
:10381800E9EE857A25EE495A65EEE99AAAEE255A27
:10382800E9EE079A77EE8B7A35EE0B5A39EE8B7AFA
:1038380005E0B0EE4B7AB0EE4B5AF0EE4B7A2A68C0
:10384800D2ED015AF5EEC05AF1EE10FA4FF000032E
:103858001FDDDFED266AF4EEE6CAF1EE10FA1ED59A
:1038680025EEA76AD8ED426AE8EE866A25EE856AF3
:10387800C8ED426AD8ED436AE8EE866A65EE875A73
:10388800C8ED436AD8ED446AE8EEA56AC8ED446A13
:1038980005E0C8F80831C8F80C31C8F81031144BE5
:1038A80092ED026A1A7812F0040F994624D1114B4E
:1038B8001A6844F61F639A42F2EE045AF7EE006A59
:1038C80088BFF0EE665A19E09C230020FC15002002
:1038D8005C08002028100020500800206408002000
:1038E80000000000B41400200AD7233CC2B8B23E3E
:1038F8000008002018150020F7EE005A66EE255A39
:10390800D8ED426A98ED446ADFF87CB3CC4ADBED27
:10391800004A92ED004ACB4BDFF870A3D3ED003A92
:103928000492E7EEA56A0393A7EE256AD8ED437AD9
:10393800E5EE257AF6EE005A68EEA55A76EE8C6A20
:1039480036EE2A6A26EEA57A77EEAB7A66EE256A17
:1039580067EEA57A26EEA40A64EEE75AA7EE040AF3
:103968009AED005AE3EEC75AA7EEC50A23EEE66AB7
:10397800E6EEC55AA7EE846A30EE230A67EEA37A0C
:1039880075EE845AA7EE056AE6EE847A83ED000A9E
:1039980020EE000A36EE246AA5EEA50AE7EE647A60
:1039A800A6EE060A77EE857AC2ED005AA7EEA70AB8
:1039B8008BED006ACAED007A0AF0D2FA88EE007A36
:1039C800049A039BD2ED007A9FED9F8A67EE877A6F
:1039D800C2ED007AD3ED007A67EE877AC3ED007AFC
:1039E800DBED007A67EE877ACBED007ADAED007AC4
:1039F80027EE870A8AED000A02F0B8FAD4ED080A21
:103A080094ED070ADFF888A202F0D6FE20EE080A35
:103A18000AF0C2F894ED060AAAF80000B1EE400ACE
:103A280002F097FEDFED897A37EEC00A20EE080A29
:103A38000AF0B2F8D4ED000A94ED030AAAF80200DD
:103A480002F0BAFE824BD3ED007AE0EE487AB0EE8F
:103A5800670A0AF0A1F802B2002AA8BFAAF804204F
:103A6800D4ED085A7B4AD8ED457A117894ED010ACD
:103A780094ED048A94ED065AB8BF00F56160F4EE3F
:103A8800E75AB8BFAAF80400F1EE10FACCBF41F02B
:103A9800080121F0080111706F4ABAF80430D38088
:103AA800B6F90030D4ED007ABAF80010518006EE6D
:103AB800103AB6F90230BAF80210918007EE103ABF
:103AC800B8EEC77AB8EEC66AB6F9043027EE000A2F
:103AD80006EE903AA6EE270A2B68F8EEE66AD4EDD1
:103AE800027A5B78A6EEA70A012BD4ED077A27EEB7
:103AF800088A67EE277A94ED037AA6EE078A94ED92
:103B0800057AE6EE057AA6EE878AE6EEA57AB1EEA4
:103B1800488A19D199F8003059070FD4D8F81831C4
:103B2800402293FBF2F29B1A07EE103AB8EEC77ADE
:103B380037EE277ABDEEC77A88ED467AD8F818317D
:103B4800402293FBF2F300E03B89444E444C07EEDD
:103B5800103A444BD3ED006A78EEA66AB8EEC77AFD
:103B680088EEA66A77EEC77A98ED477A77EEC77A35
:103B78001DEE105AA6EE277AF0EE478A88ED477AAE
:103B88000AF00AF83368197802F0D4FD2368B0EE19
:103B9800480A1844206009F0FFFF3368197802F0DA
:103BA800C9FD6368B0EE680A1844606009F0F4FF64
:103BB8003368597802F0BEFDA36818442A4BA06008
:103BC8001A681544294A1D6013680133136003E01D
:103BD80000233B607B60BB60254A264B1668B3F91F
:103BE8000630728993420CDBB3F5FA6FF579BFBFE3
:103BF8009B1A6B43C2F5FA6593FBF5F5C5F16405AD
:103C080000E064251C4B1D4FB3F810B01C4B1B681B
:103C180004931C4B1B6805931333069300226420FE
:103C2800144B33F912E0CBEB0E03002B4FEA420C96
:103C380003932FDDB3F5FA7FA8BF4FF4FA7330E092
:103C480008000020A81400204C3D0F44DB0FC93F9A
:103C5800E41500200A0B002068220020001600202E
:103C68003C150020041600203415002038150020CB
:103C7800C4080020941D0020761D0020901200200A
:103C88006C090020C8080020AC140020B0140020E3
:103C98008A080020CEEB0B03B3F5FA7FA8BF4FF4D8
:103CA800FA73022A0393049B2DD0197829B1039B38
:103CB8009942B4BF5B1A00230393039B93FBF0F173
:103CC800B64B01F1010933F9114033F91990039BFF
:103CD8006FF0630A0AFB0131C4EB090901FB09F122
:103CE80091FBF0F1214427F80C10B11809794B43E6
:103CF800AB4993FBF1F3AB4964339BB26B438D54EF
:103D080093FBF0F32FE0597829B1039B8B42CCBF8A
:103D18005B1A00230393039B93FBF0F1A24B4C1C0B
:103D280033F9119033F91440039B6FF0630A0AFBCF
:103D38000131049BC9EB0404614391FBF0F1894410
:103D480093F90410039B494219FB01F9A7F8049061
:103D5800B179002BB8BF5B424B43914993FBF1F318
:103D68009049643388700599904C895C594391FB5C
:103D7800F0F1A154069C14F8011F06944B438C499A
:103D880093FBF0F3DE458B54B8BF37F80C30894C01
:103D9800B8BF5B4202F10102B8BF27F80C30032A12
:103DA8007FF43EAF844F854EB7F90610738A994267
:103DB80005DBB1F5FA6FA8BF4FF4FA6100E01946C8
:103DC800C91A4FF47A7251434FF0640CC3F5FA6282
:103DD800B1FBF2F17A4A91FBFCF3581C32F913E07B
:103DE80032F91020734DCEEB02006FF0630202FB34
:103DF8000312424392FBFCF37344E380714B1B882C
:103E08005A0639D5704BDFED717AB3F904300A22BE
:103E180093FBF2F3B8F820219B1A1BB208EE103A74
:103E2800B8EEC88A28EE278AB0EE480A02F098FD54
:103E3800F0EE408AB0EE480A02F030FDB5F90230E3
:103E480007EE103AB5F90030B8EEC77A06EE903AA8
:103E580067EE407AF8EEE66AE8EEA67A20EE260AE1
:103E6800FDEEE77AA8EE870A17EE903AFDEEC07AE3
:103E78002B8017EE903A6B80B37B002B4FD0544BBE
:103E88009A89B3F82211B1FBF2F1524A481C127810
:103E980000B2A3F824010AB3B3F9269100234C4DCC
:103EA80034F913C005F5987E05F594783EF813A00B
:103EB80038F913202EF813C0CAEB0C0A02FB09F2DA
:103EC80092FBF0F2524428F813200133042BE6D178
:103ED800404BA5F8261100221A7004E0B3F82621F9
:103EE800013AA3F826213A4AB2F92651002D4FF09B
:103EF800000312DDB2F924E102F59472364832F972
:103F0800131030F81300694391FBFEF1411A24F8AD
:103F180013100133042BF1D101E0A2F826312F4B05
:103F280001221A702E4B9B680BB12E489847254BDF
:103F3800198811F4027F00F08C802B4B1B7803F05A
:103F4800100303F0FF004BB1214B93F93A21274BA3
:103F58001868638800FB023363807AE0244B1B787F
:103F6800002B76D0234AB7F90630B2F900209B1A05
:103F7800214A126883EAE3759278A5EBE3759542C6
:103F8800134A3FDD042093FBF0F31C4803601C48F0
:103F98000123037082F83B313FE000BF92150020F7
:103FA8000CFEFFFF0713002084150020BC12002020
:103FB800FC12002090120020941D0020761D002085
:103FC8006C150020400800208A08002035FA8E3C35
:103FD800480F0020200E002078100020210E00201D
:103FE80034130020801000200A0B002064150020E4
:103FF80090220020220E00206C0900205815002075
:104008006815002092F83B313BB1B24B82F83B0176
:104018001D68B14B1D60B14B1870B14B1B7C33B19F
:10402800AE4B01221A70AF4B6FF018021A60AE4BFC
:10403800AE48B3F90020AE4B1B681A440388408889
:104048009A4203DB90420346A8BF13461BB2E380A3
:10405800FB82A84BA84D1B785BB1B7F90620738A81
:104068009A4206DC2B780E2B03D0082B1CBF0023AA
:10407800A380A24B1B6893F80280B8F1000F31D0DF
:104088008B072FD09E4BDFED9F7A93ED080AB4EE95
:10409800E70AF1EE10FA21D902F05BFB9A4BD3ED57
:1040A800007A20EE270A09F077FDB0F5617FA8BFF6
:1040B8004FF4617007EE900AB8EEE77ADFED937A75
:1040C80087EE270A02F0EAFB07EE908AF8EEE77A15
:1040D80027EE800A09F060FD00B200E00020E388C6
:1040E8001844E0808A4B8B495A898B4B0096D3F849
:1040F80000808A488A4B00681B680968C047894B5A
:104108008948DB780393894B1B78032B18D9B5F8BA
:1041180004C0BCF5FA7F13D2B4F904E0B0F9048006
:104128008EEAEE79A9EBEE79CCF10001C9EB010238
:10413800904504DB0CEB09024245A8BF4246828049
:104148007B4A116811F000610FD195F90220B0F98E
:104158000280B0F90090B0F90400B4F906C0DFF8A5
:10416800F4A1744C5242504366E195F90220B0F92B
:104178000280B0F90090B0F904006F4D4FF0000EC6
:10418800524250437146F4469C452DD207EE900AA0
:10419800B8EEE77A07EE908AF8EEE76A07EE909AAB
:1041A80095ED016AF8EEE77A0DF1300A67EE867A46
:1041B80095ED026AE6EE867AD5ED036AE7EE267A91
:1041C800FDEEE77ACDED047ABDF910202AF81C201F
:1041D8008A4202DC724502DB0A46114672460CF13D
:1041E800010C10359646CFE7544B404D1A68CEEB7C
:1041F800010112F4805F0FFA81FE984631D0504BCE
:1042080050491B78B7F9064013F0040F04BF338AEE
:10421800A1F8FC314C4B368A1B68DA884B4BB01A34
:10422800844204DCB3F90000B5F9002006E032440A
:10423800944206DBB5F90200B3F90220A1F8FC416B
:1042480015E0B1F9FC219042ABBFB3F90000B3F916
:104258000220B5F90020B5F90200ACBF04461446A7
:1042680005E0B4F90640B5F90020B5F902002F4E73
:1042780080B21FFA82F9C9EB00030FFA83FAD64518
:10428800334B69DD07EE90EAB8EEE77A07EE90AABD
:10429800F8EEE77A012287EE878A1A7000273378CA
:1042A8009F420FD20DF1300B3BF9173000EE103A58
:1042B800B8EEC00A20EE080A09F06EFC2BF81700C9
:1042C8000137ECE702229AFBF2F309EB030212B280
:1042D80011464BE090080020541500206815002076
:1042E8006822002058150020240E0020D408002041
:1042F80064150020000000202C080020F81500207C
:10430800B41400208FC2753C08160020EFB6B044E4
:10431800B8080020C40800200C000020C8080020AD
:10432800F408002074240020001300200613002045
:10433800440800208C10002084100020901D0020CC
:1043480000080020480F00206C09002064090020A4
:10435800A41200207008002000221A7002239EFB7D
:10436800F3F309EB0302C01A12B201B2D8F8003015
:104378009F4FA04896F800C0B5F80490B5F802E041
:104388002E8803F480530793B7F9FC3104939A4BB2
:104398001B8A0593994B1B680693994BB3F800A0A9
:1043A800B3F8028007F59E7300250893654580F0F1
:1043B800FB800CAB07EE904A33F815B0089B03EB73
:1043C800051393ED007AF8EEE77A134667EE877ADD
:1043D800FDEEE77A17EE907A974204DB8F4217EEEC
:1043E800903AA8BF0B465B44039F1BB220F8023FDC
:1043F8001FB14B4518DA4B461BE0079F97B1069F44
:10440800B7F806B0059FCBEB070B049F5F4505DCAB
:10441800B3420DDB5345A8BF53460AE0434503DAD0
:10442800434606E09E4203DC7345A8BF734600E09E
:10443800334603800135B9E7994204F11004DFF8E7
:10444800CCE127D207EE900AB8EEE77A07EE909A09
:10445800F8EEE76A07EE90CAB8EEE76A07EE908AC8
:1044680054ED045AF8EEE77A67EEA57A54ED065A49
:10447800E6EE257A14ED056AE6EE867A54ED036ACF
:10448800E7EE267AFDEEE77A17EE902A2AF8112051
:104498000131D1E7BEF900100122934206D93EF955
:1044A80012008142B8BF01460132F6E7554A95F835
:1044B80001905488544AB7F906501268B6F810E0CB
:1044C80002F480500A904D48006804904C48B0F8B7
:1044D80000A0B0F802C00FFA8AF0069049480FFA17
:1044E8008CF7B0F80080059702F0100287880B92CD
:1044F8000FFA88F209923AB2A1420892434A708AA6
:104508000790C6BF091B09B2002102EB4300904285
:104518004AD013880A9E5B1A1BB222F8023BF6B1F6
:10452800B9F1000F08D1049EF688C6EB0E0B5D4565
:1045380002DD7644B5420BDB754503DD634514DACD
:1045480063462EE0BB4214DB5345A8BF534628E020
:104558007545CCBFBDF81430BDF8183021E0039E76
:104568004EB132F9023C9F4203DCA342A8BF234666
:1045780017E03B4615E0434503DBA342A8BF2346AB
:1045880000E0434622F8023C079B9D42BFDA0B9BA2
:1045980013B1BDF8203004E0B9F1000FB7D1BDF870
:1045A800243022F8023CB2E7194B1A7802F00402D0
:1045B80002F0FF0322B9174A1449127816480AE094
:1045C8000B4B93F8FE3173B113B0BDEC0C8BBDE807
:1045D800F04F01F01DBC9342F2D230F8134021F89D
:1045E80013400133F7E713B0BDEC0C8BBDE8F08F37
:1045F800480F00206E080020761D00206C0900205E
:1046080064090020D4080020901D002070080020B4
:104618000008002006130020F20A002070B50C4D97
:1046280000242E19605905F0ABFC716811B10948D6
:1046380005F0A0FAB16811B1074805F09BFA0748E0
:10464800103405F09DFCB4F5B87FEAD170BD00BF09
:1046580080F400084B080108510801088F1101086F
:104668002DE9F84F814606F047FD334E0446D6F84B
:10467800008098B93148324D05F082FC012655F882
:10468800241049B106FA04F313EA080F02D02D48A2
:1046980005F070FA0134F2E72B4824E002462B4972
:1046A80048460AF021FD58B929482A4C05F068FC0B
:1046B80054F8041F0029EFD0224805F05BFAF7E709
:1046C80099F80030DFF878B02D2B03BF09F1010904
:1046D80004F1FF344FF0010A4FF0000A00255BF89F
:1046E800257027B91C48BDE8F84F05F049BC22469B
:1046F800394648460AF0F8FCD8B90123AB401906F8
:1047080001D51648EFE79A05FBD4BAF1000F04D09B
:1047180028EA03033360124803E043EA0803114818
:10472800336005F02DFC39460F48BDE8F84F05F019
:1047380021BA0135D3E700BFF8080020570801085F
:10474800F0F50008610801088F11010865080108E3
:104758006A080108ECF500087608010885080108D0
:10476800930801089C0801081E0F010838B5094D77
:10477800094805F005FC286801F042FE074B0024B3
:104788001C701C63064B1C7001F0D4FB05F056FC32
:104798002C6038BDFC070020A4080108481100203F
:1047A800D4070020F8B50E4D064600242F462B7975
:1047B80003F03003B3420CD104EB04130948F95851
:1047C80005F0D8F92846002105F0BEFA064805F09C
:1047D800D7FB01347A2C05F11105E8D1F8BD00BFEB
:1047E80008FE0008D00801088F1101082DE9F041E2
:1047F80004460D4616464FF000081927204620218A
:104808000AF064FC0446D8B10134204609F0BAF82D
:10481800B0F5617F05DB40F634039842A8BF18461F
:1048280001E04FF46170A0F5617090FBF7F0B8F10A
:10483800000F01D1287000E06870337801333370BD
:1048480008F10108B8F1020FD8D12046BDE8F0817F
:10485800F0B5047885B00746CCB9314E19253268D1
:1048680002EB84034FF461779978D87812F8242002
:104878005B7815FB007015FB0171019000912948C8
:104888002146013405F076F9142CE8D145E009F009
:1048980079F8132806463ADC214B20211D68781C3C
:1048A80000238DF80F300AF011FC044660B1013482
:1048B800204609F067F81B289FBF05F826009DF8D9
:1048C8000F3001338DF80F30204620210AF0FEFB0F
:1048D800B700044660B10134204609F053F80D28AA
:1048E80006D8EB1958709DF80F3001338DF80F304A
:1048F800E9190DF10F0202312046FFF777FF9DF805
:104908000F30042B09D0002345F8263005E0132387
:1049180000220549054805F02DF905B0F0BD00BF96
:10492800CC080020DA080108EF080108F50801089A
:10493800014805F025BB00BF14090108F0B585B092
:10494800054606F0D9FB082826D16E1EEF1D16F87D
:10495800014F09F02BF82044437803F00303022B9E
:1049680008BF203CB7423470F1D12C4605F1080746
:1049780014F8016B144831460AF0A8FB20B13146FF
:1049880020460AF0A3FB10B1FFF7D2FF1AE0A742B6
:10499800EED1284603F02EF80C480D4C05F0F0FA3D
:1049A800094800231A5D04A90A44195C02F80C1C82
:1049B8000133082BF6D1002301A906488DF80C30E5
:1049C80005F0D8F805B0F0BD44FC0008220901083C
:1049D800761D00201F0F01082DE9F04104780646D6
:1049E80074B9294D35F82420284805EB840321465D
:1049F8005B88013405F0BEF8042CF3D1BDE8F081E2
:104A080023490AF034FB20B92248BDE8F04102F0FE
:104A18008BB8304608F0B6FF032805462CD820216D
:104A280030460AF053FB044630B10134204608F002
:104A3800A9FF0126074600E00646202120460AF085
:104A480045FB10B9BDE8F04172E7013008F09AFF64
:104A5800012EF7D1A7F2EE2240F2DC539A42F1D8A8
:104A6800A0F2EE229A42EDD8074B23F8257003EB0B
:104A780085035880BDE8F0810323002206490748D2
:104A8800BDE8F04105F076B898240020280901080F
:104A98003B090108F81C0108FE120108F508010885
:104AA8002DE9FF4104780546002C39D17248734D31
:104AB80005F066FA55ED017AF5EE407AF1EE10FA56
:104AC80000F0D78021466E4805F054F815ED010A2C
:104AD800684601F039FD01466A4805F04BF895ED46
:104AE800000A684601F030FD0146664805F042F8C4
:104AF80095ED010A684601F027FD0146614805F079
:104B080039F895ED020A684601F01EFD01340146A8
:104B18005D4805F02FF80C2C05F11005CAD1A8E066
:104B280005225A490AF0E0FA38B9594900220B1807
:104B38001030C0281A60FAD19BE004225549284653
:104B48000AF0D2FA044600283FD1202128460AF06C
:104B5800BDFA002800F08D80451C284606F0CCFAE6
:104B68004D4F5FFA80F857F824601EB94B4805F09E
:104B780007FA7EE04246314628460AF0B5FA013483
:104B88000028F0D1424900220B181030C0281A60C2
:104B98003F4FF9D1424B03EBC404D4F8D0E1BEF146
:104BA800000F03D0002594F8CCC104E031463D48FD
:104BB80004F0E0FF53E06545F8DA2B01FC18734474
:104BC8000FCB013584E80F00F5E7284608F0DAFE38
:104BD8000B28064647DC284620210AF077FA0546C6
:104BE80050B10135284601F027FC2F4B03EB061383
:104BF80083ED0D0A012400E00446284620210AF02E
:104C080065FA054648B10135284601F015FC264BE2
:104C180003EB061383ED0E0A0134284620210AF01F
:104C280055FA054648B10135284601F005FC1E4BEA
:104C380003EB061383ED0F0A0134202128460AF0FE
:104C480045FA10B9FFF774FE13E0013001F0F4FBE8
:104C5800154B032C03EB061686ED100AF2D1134808
:104C6800FFF71EFF05E00B2300221149114804F04D
:104C780081FF04B0BDE8F0814109010880110020DE
:104C88005C090108620901081F0F01083B090108B6
:104C98007C11002066090108C0FC0008760801089C
:104CA80080F400086B09010848110020B80E0108BB
:104CB800EF080108F5080108F0B5047887B0064642
:104CC8000CBB4B4E0627326807FB04F3D118D35CA4
:104CD80091F804E091F801C08D784A79CDF80CE09C
:104CE800C97802914FF4617E192010FB05E110FB91
:104CF8000CE00191009021463E48013404F03AFF4F
:104D08000C2CE0D172E008F03DFE0B28054667DC6C
:104D1800374B701C1C68202100238DF817300AF0CF
:104D2800D5F9064670B10136304608F02BFE032847
:104D380008D8062303FB054358719DF81730013343
:104D48008DF81730304620210AF0C0F9064668B1C0
:104D58000136304608F016FE0D2807D806236B43A7
:104D6800E0549DF8173001338DF81730062707FBFC
:104D780005470DF11702791C3046FFF737FD202152
:104D88000AF0A4F9064658B10136304608F0FAFD93
:104D980026289FBF9DF81730F87001338DF817301B
:104DA800202130460AF092F968B1013008F0EAFD96
:104DB8000D2808D8062303FB054318719DF8173002
:104DC80001338DF817309DF81730062B0ED00623C7
:104DD8005D436219002363519380FFF7A9FD05E045
:104DE8000B2300220449054804F0C4FE07B0F0BDB7
:104DF800D008002077090108EF080108F508010824
:104E08002DE9F0430278514C87B082B9504F514D8B
:104E180004F1280694F902100023DA578A4271D067
:104E28000C333C2BF9D10834B442F3D18BE0002584
:104E380004950595471C08F0A5FD2B4640B204EBE8
:104E4800C30696F90220824278D00133052BF6D1A9
:104E580000263446202138460AF038F9054638B18C
:104E68000135284608F08EFD0134ADF81200E4B291
:104E7800DFF8E8900027A9F52778202128460AF0CE
:104E880025F9A0B3451C284608F07CFD002159F8F7
:104E980021209042CBB203D001310829F7D1002359
:104EA80008EB8302D2F89C22904220D1022F0FD027
:104EB800032F12D05A1E012FD2B204D0042A13D8BD
:104EC8008DF814300EE0042A0ED88DF8153009E05C
:104ED800052B09D88DF8173004E09A1E052A03D847
:104EE8008DF816300134E4B20137042FC5D1052CF2
:104EF80003D807B0BDE8F0431AE504AB03CB306034
:104F0800716020E0607AA379A28805EB800005EB48
:104F18008303D0F89C020290207AD3F89C3205EBE8
:104F28008000D0F89C020190E07905EB8000D0F871
:104F38009C020090084804F01DFE74E78DF81000EC
:104F48000236012486E707B0BDE8F0830208002096
:104F58002809002080F40008970901081CF70008B8
:104F6800F7B5047805464CB901A9204602F0B1FD11
:104F78000134FFF7F5FF122CF6D16EE008F002FDC0
:104F8800C4B2112C63D8681C20210AF09FF8344D54
:104F980030B9344B13F814108A1E514251413FE086
:104FA80005F52F76471C417830460AF08FF858B13E
:104FB800032C8CBF03230023801B2B4453FA80F05F
:104FC80090F8C062032E02D1FFF7B2FC45E0202121
:104FD80038460AF07BF8D8B1022EF5D1013008F036
:104FE800D1FC40F2ED2380B2984205DD40F6CA03B9
:104FF8009842A8BF184601E040F2EE20194B03EB97
:105008004403A0F2EE20192290FBF2F0587001E060
:10501800022ED9D0B31E59425941124B03F81460DD
:10502800104B13F81420154495F8BC2251B103EB2A
:10503800440340F2EE215B78192000FB031321465C
:10504800094808E02146094804F094FD05E00849AC
:1050580008481123002204F08DFD03B0F0BD00BF05
:1050680080F4000802090020B6090108C8090108EF
:10507800FE120108F50801082DE9F0432DED048B17
:10508800884985B0044609F0F2FF87490028204680
:105098000CBF0126072609F0EAFF844900282046AC
:1050A80008BF022609F0E3FF002808BF0426F1071D
:1050B80040F1BE807E487F4C04F062FF002005F07E
:1050C8008CFB7D4804F05CFF7C4804F059FF7C4B66
:1050D8007C4A1B787C48013B002552F8231004F0D9
:1050E80049FD7A4804F046FD14ED018AB5EE408A80
:1050F800F1EE10FA06D17648764C04F041FF764B73
:105108001F6856E029467548D4ED009A94ED019A37
:10511800D4ED028A04F02EFDB5EEC08AF1EE10FA45
:1051280002D5202004F01EFDB0EE480A684601F0C2
:105138000BFA01466A4804F01DFDF5EEC09AF1EE3F
:1051480010FA02D5202004F00DFDB0EE690A684679
:1051580001F0FAF90146624804F00CFDB5EEC09A78
:10516800F1EE10FA02D5202004F0FCFCB0EE490A5A
:10517800684601F0E9F90146594804F0FBFCF5EEF0
:10518800C08AF1EE10FA02D5202004F0EBFCB0EE54
:10519800680A684601F0D8F901350146514804F01B
:1051A800E9FC0C2D04F110049ED1A4E74E4804F04C
:1051B800E1FC54F8041F0029F8D10D46DFF86C8192
:1051C8004FF0010908E009FA05F33B4203D02146F4
:1051D800464804F0CFFC013558F82540002CF2D1A0
:1051E800434804F0CDFE21464248434C0B5D04AAD7
:1051F80013440A5C03F8102C01310829F6D16946DA
:1052080000243E488DF8084004F0B4FC3C4804F003
:10521800B7FE3C48FFF7F4FD3B4804F0ABFC2046E2
:10522800FFF7C0FA394804F0ABFE3648FFF798FE9E
:10523800B20720D5364804F0A3FE364804F0A0FE95
:10524800304804F015FE344804F09AFE2D48FFF764
:10525800FFFA324804F094FE2A48FFF72DFD304843
:1052680004F088FC2748FFF7B7FB274804F082FCC6
:105278001020FFF797FA73070ED52A4804F080FE2E
:10528800294804F07DFE1F4804F0CCFD1E4804F0B8
:1052980071FC2020FFF786FA05B0BDEC048BBDE851
:1052A800F08300BFD7090108240D0108DE090108B1
:1052B800E409010880110020F2090108040A010824
:1052C8002C080020C0FC0008100A01081B0A01086D
:1052D800280A0108ECF50008F8080020380A010837
:1052E800540801081F0F0108400A01084E0A010866
:1052F8005B0A010844FC0008761D0020670A0108C3
:10530800700A0108B80E01088F1101087F0A010808
:105318008C0A01089F0A0108AD0A0108B70A0108AA
:10532800C60A0108D40A0108E50A0108F0F50008D0
:1053380008B5044804F024FE034B1868BDE808408B
:1053480001F05EB8F70A0108FC07002002884FF652
:10535800FF739A4270B504461FD0114D06260520EA
:1053680085F8F46005F006F8304604F0A5FF002043
:1053780004F0A2FF002004F09FFF2088000A04F038
:105388009BFF207804F098FF04F0D8FF05F1F500A2
:105398001021BDE8704004F021BF012070BD00BF9E
:1053A8004811002038B50124084D204685F8F440FE
:1053B80004F0E0FF204604F07FFF04F0BFFF05F192
:1053C800F5001021BDE8384004F008BF481100205E
:1053D8000D4A2DE9F04114685369DFF830801C400C
:1053E800154601276CB1B4FA84F3C3F11F0307FA19
:1053F80003F658F823000368984724EA06046E6108
:10540800F0E7BDE8F08100BF000401405012002021
:105418002DE9F04F85B080460393A54B02911C8877
:10542800019204F00204A4B294B1A24BB3F9404033
:10543800B3F94230002CB8BF6442002BB8BF5B42BE
:105448009C42B8BF1C46B4F5007FA8BF4FF4007457
:10545800994F08F1090300930026A7F1480A974AD3
:10546800974B52F8262033F91600002A4FF0040112
:1054780092FBF1F1B8BF5242B2F5206F4FEA4609EC
:105488004FEA40034FEA860E0DDC3A685D1A2A445B
:10549800B2F57A5FA8BF4FF47A528A4DAA42ACBFE0
:1054A8003A603D6001E000223A60874A12681501BF
:1054B8001BD5864A864D127812F0200F02D19AF831
:1054C800542062B155F80E50D7F800C06A4294458E
:1054D80003DBAC456246A8BF2A463A6005E03A6855
:1054E800002AB8BF524245F80E20009A3D6812F8CB
:1054F80001CF009218F8062053436D4A1288ED1127
:105508000CFB05F592074FEAA5154FEAA3133FD008
:10551800019A40005242904203DB019A8242A8BF9E
:1055280002466C48DFF8BCC139F90000101A039A2A
:1055380032F9162010445EF80C2042F2107B024427
:105548005A45A8BF5A46DFF8A0B15A45B8BF5A46CF
:105558004EF80C2098F807C000FB0CF098F81BC018
:105568000CEB8C0CC011CCF1000B584503DB6045EB
:10557800A8BF6046834698F8110042431213AD1A3B
:10558800CBEB03036543634302EB65250BEB632316
:10559800514810F806B001FB0BFBA3EBAB1B031D36
:1055A80039F9032029F80310521AB8F8221089B1E2
:1055B80007EE902A0C230C3003FB0600DAED1D0AD7
:1055C800C9B2B8EEE70A01F0D3F908F0E5FA00EB42
:1055D80040030CE000F1300138305EF801C05EF89D
:1055E80000304EF8012063444EF800C01344314A9D
:1055F80002F1AC015D44885D02F1B001434301361C
:1056080005EB6313022E29F8013007F104077FF434
:1056180026AF029B9979B2F944300F3149005943BA
:105628004911264B00299B684FF0040093FBF0F3C7
:10563800A1EB0303B8BF494232290EDC98F80C10DD
:10564800106D03FB010025498142A8BF014624488B
:105658008142ACBF1165106501E00021116598F821
:1056680002104B4392F8B61003294FEAA3130CD942
:10567800B8F82010B1F5FA7F07D24842834203DB1D
:105688008B42A8BF0B4600E00346116D41F34F3132
:10569800B1F5807FA8BF4FF480716FF0FF008142A1
:1056A800ACBF5B181B18A2F8B43005B0BDE8F08F8A
:1056B80040080020501200209812002064080020A2
:1056C8009012002080C1FFFF440800200A0B002030
:1056D800A81200208A080020BC120020FEFFFF0F3D
:1056E800020000F0B4120020F0D8FFFF2DE9F04FBF
:1056F80087B0804604939D4B03921B8803F00203F6
:105708009BB20C465BB3109B1E8A0020314601F009
:1057180063FF31460546012001F05EFF85EAE57327
:105728000028A3EBE573B8BF40429842B8BF1846BB
:10573800C0F5FA70052390FBF3F35BB20A22643BD1
:10574800534398F81B20D2105343642293FBF2F37F
:1057580013449342A8BF134623EAE3735BB2009352
:10576800E31C0293824BC2460026A3F1400B029B26
:1057780013F8014F0293022E04F11B0404D1BBF964
:1057880044305C4364112CE0794B33F91620774B95
:10579800198854438D074FEA46004FEA241420D055
:1057A800039B52005B429A4203DB039B9342A8BFD0
:1057B8001346704A825E9B1A049A32F91620C9076A
:1057C800134404D598F807405C43241109E098F87D
:1057D80011205343009A5343642293FBF2F304EBE2
:1057E8002314654B65489AF8005053F82620042383
:1057F80092FBF3F3325C0192E41A6543022E02FB3A
:1058080005F54FEA86094FF0640295FBF2F54FEA79
:10581800E51521D1B8F8241079B107EE905ADBEDDF
:105828001D0A0593B8EEE70AC9B2053001F0A0F8E1
:10583800FDEEC07A059B17EE905AB8F820205AB1B1
:105848009BF8B610032907D95142A94203DC9542B7
:10585800A8BF154600E00D46DBF8C810484F9AF877
:105868000AE059F8072088B26043C0120EFB0022F4
:10587800B2F5001F4348A8BF4FF400129042B8BFCA
:105888001046414A126812011AD5404A127812F09D
:10589800200F07F1100702D19BF8542042B157F8A6
:1058A80009707A4282420ADCB842A8BF384607E04B
:1058B80080EAE072A2EBE07247F8092000E01046A7
:1058C8002F4A49F8020047139AF81400A2F1480E2B
:1058D80000283CD098F82600843228B952F80900EC
:1058E80042F80930C01A04E052F8090042F80940A9
:1058F800201AC1F30B114FF6FF73B3FBF1F14843C4
:10590800B8F82210401171B107EE900A204BDEED75
:105918001D0A0C20C9B2B8EEE70A00FB063001F0F8
:1059280027F808F039F99AF814301A4A5843019BB5
:1059380043431846642390FBF3F31B12B3F5007F2F
:10594800A8BF4FF400739342B8BF134600E0034664
:105958003D44114A2B4422F816300136032E0AF131
:10596800010A7FF404AF07B0BDE8F08F40080020BB
:10597800901200208A0800206408002007130020E5
:10598800981200200000E0FF440800200A0B0020C5
:10599800C812002000FEFFFF001300202DE9F04F81
:1059A8002DED0A8B85B093460193C84B02931A8854
:1059B80012F0020F054688463BD0189B1E8A00202D
:1059C800314601F009FE31460446012001F004FE8B
:1059D800EA7E72B3002CB8BF64420028B8BF4042C8
:1059E800A042B8BF2046C0F5FA7007EE900A9FEDB6
:1059F800B87AF8EEE77A6423C7EE876A93FBF2F386
:105A080007EE903AB7EE007A76EEC76AF8EEE77AD4
:105A1800F0EE479AE6EEA79AF5EEC09AF1EE10FA84
:105A280007D4F4EE479AF1EE10FAC8BFF0EE479AA1
:105A380001E0DFEDA89AA84E9FEDA8AA08F1030897
:105A48002F460024A6F1D809F0EE4AAA18F8012F2B
:105A5800022C02F11B024FEA440A08D1B9F944109A
:105A680001FB02F307EE903AFAEEED7A3AE09C4930
:105A780031F9140000FB02F307EE903A029B1988F3
:105A8800F8EEE77A8B0767EE8A7A2BD04000CBF1E5
:105A98000002904203DB58450246A8BF5A46914887
:105AA800019B30F90A00101A33F91420831807EE05
:105AB800103ACA07F8EEC76A09D5EB7907EE903AAB
:105AC800B8EEE77A67EE267A67EEAA7A0AE06B7C88
